:020000040800F2
:10000000000002201D8400082D1C00082F1C000881
:10001000311C0008331C0008351C000800000000DB
:10002000000000000000000000000000371C000875
:10003000391C0008000000003B1C00083D1C0008A3
:1000400071840008718400087184000871840008BC
:1000500071840008718400087184000871840008AC
:10006000718400087184000871840008718400089C
:10007000718400087184000871840008718400088C
:10008000718400087184000871840008718400087C
:10009000718400087184000871840008718400086C
:1000A000718400087184000871840008718400085C
:1000B000718400087184000871840008451C0008E0
:1000C000551C0008718400087184000871840008C0
:1000D000718400087184000871840008718400082C
:1000E0007184000871840008000000007184000819
:1000F000718400087184000871840008718400080C
:1001000071840008718400087184000871840008FB
:1001100071840008718400087184000871840008EB
:1001200071840008651C000871840008718400084F
:1001300071840008718400087184000871840008CB
:1001400000000000000000000000000000000000AF
:1001500071840008718400087184000871840008AB
:10016000718400087184000871840008718400089B
:100170007184000871840008751C000800000000EC
:10018000718400087184000871840008718400087B
:10019000718400087184000871840008718400086B
:1001A000718400087184000871840008718400085B
:1001B000718400087184000871840008718400084B
:1001C000718400087184000871840008718400083B
:1001D000718400087184000871840008718400082B
:1001E000718400087184000871840008718400081B
:1001F000718400087184000871840008718400080B
:1002000071840008718400087184000871840008FA
:1002100071840008718400087184000871840008EA
:1002200071840008718400087184000800000000D7
:1002300071840008718400080000000071840008C7
:1002400071840008718400087184000871840008BA
:1002500071840008718400087184000871840008AA
:10026000718400087184000871840008718400089A
:100270007184000871840008718400080000000087
:100280007184000871840008718400080000000077
:08029000000000007184000869
:1002A0000348044B834202D0034B03B11847704705
:1002B0006000002060000020000000000548064BA0
:1002C0001B1AD90F01EBA301491002D0034B03B154
:1002D0001847704760000020600000200000000008
:1002E00010B5064C237843B9FFF7DAFF044B13B17E
:1002F0000448AFF300800123237010BD600000208C
:10030000000000007484000808B5044B1BB10449C8
:100310000448AFF30080BDE80840CFE700000000CC
:10032000640000207484000870B50F4B0F4DAB4281
:10033000A3EB050607D0B610002455F8043B0134A2
:100340009847A642F9D808F095F8094D094B5E1B6D
:10035000AB424FEAA60606D0002455F8043B013410
:100360009847A642F9D870BD608A0008608A0008E4
:10037000608A0008648A0008830730B547D0541E9D
:10038000002A3ED0CAB2034601E0013C39D303F84B
:10039000012B9D07F9D1032C2CD9CDB205EB0525F6
:1003A0000F2C05EB054535D9A4F1100222F00F0CF6
:1003B00003F1100EE6444FEA121C1A46C2E900553A
:1003C000C2E9025510327245F8D10CF1010214F065
:1003D0000C0F03EB021204F00F0C13D0ACF104036A
:1003E00023F003030433134442F8045B9342FBD12C
:1003F0000CF003042CB1C9B21C4403F8011BA34246
:10040000FBD130BD64461346002CF4D1F9E7034616
:100410001446C0E71A46A446E0E700BF014B18683F
:10042000704700BF0000002008B410B5002A9DB03E
:10043000044636DB4FF40273ADF814304FF000037E
:100440001B930291069120AB17D0013A4FF6FF7132
:1004500004920792ADF816101F9A019302A900F0BA
:1004600051F9421C01DA8B232360029B00221A708F
:100470001DB0BDE8104001B070474FF6FF71049207
:100480000792ADF816101F9A019302A900F03AF9ED
:10049000431C01DA8B2323601DB0BDE8104001B07E
:1004A00070478B2303604FF0FF30F5E70CB410B5B5
:1004B000214B00291C689CB038DB4FF000034FF43F
:1004C00002721B93ADF81420029006901FAB18D057
:1004D00001394FF6FF7204910791ADF8162002A979
:1004E0001E9A0193204600F00DF9421C01DA8B237D
:1004F0002360029B00221A701CB0BDE8104002B0BD
:1005000070474FF6FF7204910791ADF8162002A9CB
:100510001E9A0193204600F0F5F8431C01DA8B2364
:1005200023601CB0BDE8104002B070478B232360ED
:100530004FF0FF30F5E700BF000000202DE9F04745
:100540008F681D46AF420B680C46164636D8B1F987
:100550000CC01CF4906F0ED13D46184631462A4619
:1005600000F0EEFAA368DF1B2368A7602B4400208D
:100570002360BDE8F0874A69096902EB42025F1A0D
:1005800002EBD2726B1C52103B44934292BF9146D5
:1005900099461A461CF4806F804611D0114600F02F
:1005A000F1F9824600B321693A4600F099FBA3892C
:1005B00023F4906343F08003A38105E02F46CCE74A
:1005C00000F028FC824658B10AEB0703A9EB0707A5
:1005D000A760C4F810A0C4F8149023602F46BCE7AD
:1005E0002169404600F04EFAA3890C2243F04003F3
:1005F000C8F800204FF0FF30A381BAE72DE9F04F93
:100600009368176883B09246002B74D04FF0000BAC
:100610008B680A6881460C465D4645E0B4F90C30AB
:1006200013F4906F2CD0D4E90401161A01EB4102A7
:1006300002EBD272711C52102944914292BF904633
:1006400088460A465B0539D51146484600F09AF9B6
:10065000019000283DD03246216900F041FBA2897B
:10066000019B22F4906242F08002A2819819A8EBCB
:100670000606A660C4F8148023612060A8462E46B2
:100680003246594600F05CFADAF80810A36822688E
:10069000A3EB08033244491BA3602260CAF8081088
:1006A00049B3D7E900B5083798461046002DF8D071
:1006B0009D421E46B2D2A8462E46E1E70146484674
:1006C00000F0A8FB03460028D0D12169484600F07D
:1006D000D9F9A3890C2243F04003C9F800204FF058
:1006E000FF30A38100220023CAF80820CAF8043092
:1006F00003B0BDE8F08F00200023CAF8043003B037
:10070000BDE8F08F2DE9F04F1C468B891D069DB08A
:1007100088468146934603D50B69002B00F0F18093
:100720000023099343F22003ADF829309BF80030F1
:100730007D4D03940126002B73D0DA4603E01AF8AE
:10074000013F002B75D0252BF9D1BAEB0B0473D1E7
:100750009AF80020002A64D000234FF0FF32CDE940
:1007600005230AF1010A049307938DF853301A9375
:1007700005E0049A06FA03F31A430492A24654468B
:10078000052214F8011B284600F05AFAA346431B21
:100790000028EED1049BD80644BF20228DF85320B8
:1007A00019079AF8001044BF2B228DF853202A29EC
:1007B00050D1039A11680432002903927CDB07911F
:1007C0009AF801102E295BD0584C0322204600F0E5
:1007D00037FA38B1049B001B4022824013430BF1CF
:1007E000010B04931BF8011B51488DF828100622B9
:1007F00000F026FA002865D04E4B002B55D003AAF6
:1008000000924D4B424604A94846AFF3008007468C
:100810007A1C06D0099B3B4409939BF80030002BBF
:100820008BD1B8F80C305B067AD409981DB0BDE8BE
:10083000F08FBAEB0B04F4D023465A4641464846A3
:10084000FFF77CFE0130ECD0099B9AF8002023448E
:1008500009937FE7A1F13002092A88BFD346B1D8B6
:10086000079B00E00134217803EB830302EB430391
:10087000A1F13002092AF5D92E290793A346A3D165
:100880009BF801102A2927D1039B9BF802101A68B4
:1008900005920433002A0BF102000393B8BF4FF016
:1008A000FF338346B8BF05938EE7039B073323F0DE
:1008B000070308330393ADE7494243F0020307916E
:1008C00004937DE703AA00921B4B424604A94846C5
:1008D00000F064FB07469BE7A1F130020023092AE0
:1008E00005930BF1010B3FF66FAF1BF8011F03EBF4
:1008F000830302EB4303A1F13002092AF5D90593E2
:1009000062E7402100F03EF8C8F80000C8F8100087
:1009100018B14023C8F8143002E70C23C9F800309E
:100920004FF0FF3082E700BF2C85000834850008B7
:1009300038850008000000003D05000870B5104E25
:10094000336805460C46B3B12146284600F06CFCDE
:10095000431C0CD0C41C24F00304A04205D0211A6F
:10096000284600F061FC013001D0204670BD4FF0F8
:10097000FF34204670BD194600F056FC3060E3E7B6
:10098000B80100202DE9F843CD1C25F003050835FA
:100990000C2D38BF0C25002D064618DBA94216D8B1
:1009A000DFF8DC8000F03CFCD8F80420A2B114464B
:1009B00003E0636822467BB11C4623685B1BF8D4C6
:1009C0000B2B1FD89442636854D053600CE00C2367
:1009D00033600020BDE8F88329463046FFF7AEFFBC
:1009E000431C044619D00560304600F01BFC04F19E
:1009F0000B00231D20F00700C21A1CBF1B1AA350B6
:100A0000BDE8F88361199442256014BF5160C8F8AD
:100A10000410635163684B60E6E7D8F804701FB3B5
:100A20003C467F68002FFBD123683946304604EBF3
:100A3000030900F0F9FB814516D12368ED1A294618
:100A40003046FFF77BFF01300ED02368D8F8042032
:100A50002B442360536883B1A34203D01A465B68DA
:100A60009C42FBD10023B0E70C233360304600F0FA
:100A7000D9FBAEE7C8F80430B6E7C8F80470B3E7AE
:100A8000B8010020002950D038B551F8043C0C1FA3
:100A9000002BB8BFE418054600F0C2FB274A1368D4
:100AA0002BB1A3420CD92168601883422CD063601B
:100AB00028461460BDE8384000F0B4BBA3420FD80C
:100AC0001A465B68002BF9D111685018844217D080
:100AD0002CD3636054602846BDE8384000F0A2BBC8
:100AE00011685018A04214D020D8216860188342A1
:100AF000EFD118685B680844C4E900035460EAE772
:100B000023680B441360E6E718685B6808442060BC
:100B1000CDE720680144501883421160DBD1D3E94E
:100B200000040144C2E90014D5E770470C232B6090
:100B30002846BDE8384000F075BB00BFBC0100206E
:100B400088420ED98B1883420BD900EB020C002A85
:100B50006ED0624613F801CD02F801CD9942F9D169
:100B600070470F2A0FD8034602F1FF3C002A5FD0DE
:100B70000CF1010C013B8C4411F8012B03F8012FFF
:100B80006145F9D1704740EA01039B0751D1A2F1B9
:100B9000100370B501F1200C23F00F0501F1100EC8
:100BA00000F11004AC441B095EF8105C44F8105CC2
:100BB0005EF80C5C44F80C5C5EF8085C44F8085C79
:100BC0005EF8045C44F8045C0EF1100EE64504F196
:100BD0001004E9D1013312F00C0F01EB031102F004
:100BE0000F0400EB031328D0043C24F003064FEA63
:100BF000940C1E441C1F8E465EF8045B44F8045F90
:100C0000B442F9D10CF1010402F0030203EB8403B6
:100C100001EB840102F1FF3C4AB10CF1010C013BF4
:100C20008C4411F8012B03F8012F6145F9D170BDF7
:100C3000704702F1FF3C03469AE72246EAE700BF0D
:100C400001F0FF01102A2BDB10F0070F08D010F87D
:100C5000013B013A8B422DD010F0070F42B3F6D181
:100C6000F0B441EA012141EA014122F007047FF09A
:100C700000070023F0E80256083C85EA010586EAF1
:100C8000010685FA47F5A3FA87F586FA47F6A5FA2D
:100C900087F68EB9EED1F0BC01F0FF0102F0070239
:100CA00032B110F8013B013A83EA010313B1F8D1E4
:100CB0000020704701387047002D06BF35460338C5
:100CC000073815F0010F07D1013015F4807F02BFFE
:100CD000013015F4C03F0130F0BC0138704700BF4F
:100CE000844641EA000313F003036DD1403A41D337
:100CF00051F8043B40F8043B51F8043B40F8043BF6
:100D000051F8043B40F8043B51F8043B40F8043BE5
:100D100051F8043B40F8043B51F8043B40F8043BD5
:100D200051F8043B40F8043B51F8043B40F8043BC5
:100D300051F8043B40F8043B51F8043B40F8043BB5
:100D400051F8043B40F8043B51F8043B40F8043BA5
:100D500051F8043B40F8043B51F8043B40F8043B95
:100D600051F8043B40F8043B51F8043B40F8043B85
:100D7000403ABDD2303211D351F8043B40F8043B25
:100D800051F8043B40F8043B51F8043B40F8043B65
:100D900051F8043B40F8043B103AEDD20C3205D335
:100DA00051F8043B40F8043B043AF9D2043208D02D
:100DB000D2071CBF11F8013B00F8013B01D30B889F
:100DC00003806046704700BF082A13D38B078DD07D
:100DD00010F003038AD0C3F10403D21ADB071CBF4F
:100DE00011F8013B00F8013B80D331F8023B20F8B9
:100DF000023B7BE7043AD9D3013A11F8013B00F8F2
:100E0000013BF9D20B7803704B7843708B78837079
:100E1000604670472DE9F041144641B30AB30646D7
:100E20000D4600F013FA8442074602D8B4EB500F87
:100E300013D821463046FFF7A5FD804650B1BC428D
:100E40002246294628BF3A46FFF74AFF2946304640
:100E5000FFF718FE4046BDE8F081A8464046BDE8D1
:100E6000F081A046FFF70EFE4046BDE8F081BDE8E8
:100E7000F0411146FFF786BD2DE9F84F92461F4617
:100E80000A698B68DDF828909A42B8BF1A46CAF8FA
:100E9000002091F843300C46064613B10132CAF8DF
:100EA0000020226891065FD5DAF800300233CAF8D4
:100EB0000030226812F0060F11461DD1E1689942F8
:100EC000D8BF114618DD4FF0000804F1190B05E0FA
:100ED000E568DAF80030ED1A45450CDD01235A4685
:100EE00039463046C847013008F10108F0D14FF0CB
:100EF000FF30BDE8F88F216894F84330003B18BFFD
:100F000001238A060AD5E1185A1C302081F84300D3
:100F1000224494F8451082F84310023304F143024E
:100F200039463046C8470130E1D02368DAF800502E
:100F3000216903F00603042BD4E902201BD08A4266
:100F400020DD4FF00008521A90441A34002501E0C9
:100F5000454517DA0123224639463046C847013055
:100F600005F10105F4D1C2E712F0060F0DD0003BE8
:100F700018BF0123D2E7401B8A4220EAE078E2DC76
:100F80000028E2DC0020BDE8F88FE168DAF80030E4
:100F90009942D8BF114696DCAEE700BF2DE9F04775
:100FA000174684B00A7E0C9D0C460646984601F111
:100FB000430C002A35D0A2F15803D9B2202969D8B0
:100FC000202B67D8DFE813F0E600660066006600B5
:100FD0006600660066006600660066006600AC009B
:100FE00070006600660066006600700066006600BD
:100FF0006600660021008300C60066006600B60039
:101000006600830066006600EC002B682268616958
:10101000181D286010061B6802D4520600F1E080FB
:1010200019600023E1462361CDF800803B4603AA06
:1010300021463046FFF720FF013020D023694A4681
:1010400039463046C047013019D02368E068DDF8E2
:101050000C909B0718D5484516DD002504F1190AA8
:1010600004E0E068A0EB0903AB420DDD012352462A
:1010700039463046C047013005F10105F1D14FF046
:10108000FF3004B0BDE8F0874845B8BF484604B01B
:10109000BDE8F08784F84220012004F142090023D2
:1010A000206184F84330BFE72A682368111D1806C1
:1010B000296002D4590600F1958010680146002885
:1010C0006268C0F2938054484FF00A0E15E0206821
:1010D0002B6810F0800F53F8041B02D1400648BF64
:1010E00089B26F2A4C482B6014BF4FF00A0E4FF0A4
:1010F000080E0023626884F84330002AA26051DBA6
:10110000236823F00403236000294BD1002A7BD1FC
:10111000E146BEF1080F56D0ACEB0903236183E72B
:101120002B681A6804332B6004F1420984F84220CA
:101130000120B4E72B686268191D2960D3F800907C
:1011400000214846FFF77CFD002863D0A0EB090092
:101150006060A4E7236843F02003236078222F48CF
:1011600084F845202A6813F0800F52F8041B03D13D
:1011700013F0400F18BF89B22A60DA0744BF43F06A
:101180002003236019B9236823F0200323604FF064
:10119000100EAEE7582384F845301F482368E1E776
:1011A0002368DBE77546E146B1FBF5F305FB131A4F
:1011B0000A46AA4210F80A1009F8011D1946F3D28E
:1011C000BEF1080FA8D12368DD07A5D562682369A1
:1011D0009A42A1DC302309F8013C09F1FF399BE771
:1011E00019801EE7B2F90010084668E72D20002A92
:1011F000A26084F8430002DB23F0040323600A2585
:1012000005484942AE46CEE7037884F8423004F1FF
:1012100042097EE7606842E740850008548500087F
:10122000704700BF704700BF38B5074D0022044625
:1012300008462A6006F0CEFC431C00D038BD2B685F
:10124000002BFBD0236038BDC001002051F8043CC6
:10125000181F002BBCBF0B58C018704753B94AB9B0
:10126000002908BF00281CBF4FF0FF314FF0FF30AE
:1012700000F06AB9ADF1080C6DE904CE00F006F893
:10128000DDF804E0DDE9022304B070472DE9F04702
:10129000089D0E4604460F46002B4AD194468C45C5
:1012A000B2FA82F260D942B1C2F12003974020FA2B
:1012B00003F30CFA02FC1F4394404FEA1C4E1FFA42
:1012C0008CF6B7FBFEF1230C0EFB117743EA0743C4
:1012D00001FB06F098420AD91CEB030301F1FF372A
:1012E00080F01581984240F21281023963441B1A42
:1012F000A4B2B3FBFEF00EFB103344EA034400FB40
:1013000006F6A6420AD91CEB040400F1FF3380F074
:101310000081A64240F2FD806444023840EA014068
:10132000A41B00211DB1D4400023C5E90043BDE842
:10133000F0878B4205D90DB1C5E9000100210846AF
:10134000F5E7B3FA83F1002946D1B34202D38242D2
:1013500000F2F580841A66EB030201201746002D87
:10136000E5D0C5E90047E2E7002A40F09380A1EB11
:101370000C034FEA1C471FFA8CFE0121B3FBF7F662
:1013800007FB1630230C43EA00430EFB06F098429D
:1013900008D91CEB030306F1FF3802D2984200F291
:1013A000D08046461B1AA4B2B3FBF7F007FB1033FC
:1013B00044EA03440EFB00FEA64508D91CEB0404D6
:1013C00000F1FF3302D2A64500F2B6801846A4EB26
:1013D0000E0440EA0640A5E7C1F120078B4022FA3F
:1013E00007FC4CEA030C06FA01FE20FA07F426FA81
:1013F00007F344EA0E0400FA01F84FEA1C404FEAF2
:101400001449B3FBF0FE1FFA8CF600FB1E3349EAC9
:1014100003430EFB06F9994502FA01F20BD91CEBC6
:1014200003030EF1FF3A80F08580994540F28280F7
:10143000AEF1020E6344A3EB0909A4B2B9FBF0F3C9
:1014400000FB139944EA094403FB06F6A64208D9B7
:101450001CEB040403F1FF3068D2A64266D9023BBC
:10146000644443EA0E40A41BA0FB02E6B442734668
:10147000B14652D34FD05DB1B8EB030264EB09041F
:1014800004FA07F722FA01F31F43CC40C5E90074C0
:1014900000214CE7C2F1200120FA01F30CFA02FC12
:1014A00026FA01F1964033434FEA1C471FFA8CFE9F
:1014B000B1FBF7F007FB1016190C41EA064100FBDF
:1014C0000EF68E4204FA02F408D91CEB010100F179
:1014D000FF382DD28E422BD902386144891B9BB232
:1014E000B1FBF7F607FB161143EA014306FB0EF1C9
:1014F000994208D91CEB030306F1FF3814D2994234
:1015000012D9023E63445B1A46EA004136E7394687
:10151000EDE6184602E7F045ADD2BEEB020366EBFE
:101520000C060138B146A6E74646ECE7034698E7C5
:101530004046D3E7D6467EE76444023847E708468C
:101540000DE7023E63442DE7704700BF002070475F
:101550000020704710B584B0400080B24FF47A7418
:1015600002940193009202230A460146044804F0C3
:10157000ABFE10B9002004B010BD4FF0FF30FAE709
:10158000D802002010B584B0400080B24FF47A74C5
:1015900002940193009202230A460146044804F093
:1015A00069FF10B9002004B010BD4FF0FF30FAE71A
:1015B000D802002008B504F0F7FB08BD10B584B0D0
:1015C0000024009401940294039400F097FD0123F9
:1015D0008DF800308DF8014001941F228DF808200D
:1015E00087228DF809208DF80A408DF80B408DF880
:1015F0000C308DF80D308DF80E408DF80F40684698
:1016000000F09AFD042000F087FD04B010BD00003A
:1016100030B58DB000240794089409940A940B9473
:101620003A4BD3F8E02042F01002C3F8E020D3F8A0
:10163000E02002F010020092009AD3F8E02042F07D
:101640008002C3F8E020D3F8E02002F0800201928B
:10165000019AD3F8E02042F00102C3F8E020D3F869
:10166000E02002F001020292029AD3F8E02042F058
:101670000202C3F8E020D3F8E02002F00202039255
:10168000039AD3F8E02042F00402C3F8E020D3F834
:10169000E02002F004020492049AD3F8E02042F021
:1016A0000802C3F8E020D3F8E02002F00802059217
:1016B000059AD3F8E02042F04002C3F8E020D3F8C6
:1016C000E03003F040030693069B114D22464FF491
:1016D0000061284602F096FE4FF4807307930223C0
:1016E000089309940A940B9407A9284602F074FD04
:1016F0004FF40063079301230893099403230A938B
:1017000007A9284602F068FD0DB030BD004402581C
:101710000000025800B583B00B4BD3F8D82042F03C
:101720000202C3F8D820D3F8D83003F002030193A3
:10173000019B00221146392000F0B8FC392000F04E
:10174000C5FC03B05DF804FB0044025810B5036803
:101750005B68084C084A32212046FEF7A7FE074B7B
:1017600018604FF0FF3382B22146054806F016F8A4
:1017700010BD00BF080200208C8400083C0200203D
:1017800044020020014B01221A70704740020020E1
:101790007047704738B5002412E00B4D0B4B53F8DF
:1017A00024300B4A32212846FEF780FE094B186090
:1017B0004FF0FF3382B22946074805F0EFFF0134AE
:1017C000B4F5165FE9DB38BD0802002000000024F4
:1017D000A88400083C0200204402002072B6FEE704
:1017E00008B50C480C4B0360002343602022826044
:1017F0008022C260402202614361836103624362CE
:101800008362C362036300F013FD00B908BDFFF7F4
:10181000E5FF00BFF80300200000024808B51448A7
:10182000144B0360A3F17863A3F57D23A3F64F6304
:101830004360C42383600123C360002303614361C9
:101840008361C361036204F0DBFC50B900210848E6
:1018500005F067FB38B90021054805F090FB20B979
:1018600008BDFFF7BBFFFFF7B9FFFFF7B7FF00BFEA
:101870002C0300200054004008B51348134B0360AC
:10188000A3F17863A3F57E23A3F24F2343600023E3
:1018900083600122C260036143618361C3610362AB
:1018A00004F0AEFC50B90021074805F03AFB38B906
:1018B0000021054805F063FB20B908BDFFF78EFF46
:1018C000FFF78CFFFFF78AFFD80200200058004086
:1018D00008B51548154B03604FF4E133436000230E
:1018E0008360C36003610C2242618361C361036250
:1018F0004362836206F027F870B900210A4806F0B7
:101900009AF858B90021084806F0BAF840B90648D4
:1019100006F072F830B908BDFFF760FFFFF75EFF11
:10192000FFF75CFFFFF75AFF44020020004400402D
:1019300000B59DB04C22002109A8FEF71DFD202214
:10194000002101A8FEF718FD022004F0A1F90023F0
:101950000093294B9A6942F440429A619B6903F4CF
:1019600040430093254BDA6A42F00102DA62DB6AF7
:1019700003F001030093009B1F4B9B6913F4005F6E
:10198000FAD0012309934FF480330A930223129370
:1019900013931493502215921693179318930C23B4
:1019A000199300231A931B9309A800F06FFDF0B957
:1019B0003F230193032302930023039308230493FB
:1019C0004023059306934FF4806207920893042105
:1019D0000DEB010001F000FA58B94FF480224FF4EA
:1019E0000001002001F0AAF81DB05DF804FBFFF72C
:1019F000F5FEFFF7F3FE00BF004802580004005850
:101A00002DE9F843FFF7DAFD04F094F9FFF790FFB2
:101A1000FFF7FEFDFFF77EFEFFF7E2FEFFF7FEFE9B
:101A2000FFF72AFFFFF754FF00240DE06B496C4BD2
:101A30000B6003226B4B1A604FF47A736A4805F00F
:101A4000ADFE1CE00134E4B214F0800F29D105236F
:101A500003226100654804F0E5FD0028E6D15F4DF2
:101A60002346634A32212846FEF720FD03225D4BC0
:101A70001A604FF47A7329465B4805F08FFE002CFC
:101A8000E0D0631C13F00F0FDCD154490A230B8004
:101A90000122544B1A604FF47A73534805F07EFECE
:101AA000D0E74E4F0A233B80DFF838910122C9F876
:101AB0000020DFF834814FF47A733946404605F050
:101AC0006DFE4C4E4C4B33604C4B73603C2333816A
:101AD0004B4BF3604B4B33614B4B73613C464B4D6F
:101AE0000FCD0FC495E8030084E803001722C9F85E
:101AF00000204FF47A733946404605F04FFE3146D8
:101B0000434806F07DFA002834D00023002B3AD158
:101B1000324E34463F4D0FCD0FC495E8070003C445
:101B200024F8022B120C22701A222E4B1A604FF44A
:101B30007A7331462C4805F031FE4FF47A7004F088
:101B400039F9354C254D2346344A32212846FEF7D3
:101B5000ADFC244B18604FF47A7382B229462248B8
:101B600005F01CFE4FF41653224602212C4800F0CB
:101B7000AFFB2EE000221146254806F0B3FB0028FB
:101B8000C6D10123C2E70021214806F08BFA0028C4
:101B9000BED11F4806F028FC0028B9D10F4E3446AC
:101BA000204D0FCD0FC495E8070003C42270182202
:101BB0000C4B1A604FF47A7331460B4805F0EEFD7A
:101BC000BBE7FFF7E7FD184B00221A700A2004F06C
:101BD000F1F8154B1B78012BF3D0F7E70802002032
:101BE0002D2D20003C02002044020020D8020020BD
:101BF000B0840008C40100204D15000851150008EC
:101C00005515000885150008B5150008B8840008AA
:101C1000DC010020EC840008000000240885000896
:101C2000F8030020D084000840020020FEE7FEE711
:101C3000FEE7FEE7FEE770477047704708B504F01F
:101C4000A7F808BD08B5024804F094FD08BD00BF20
:101C50002C03002008B5024805F021F908BD00BF9B
:101C60002C03002008B5024803F00EFA08BD00BF9F
:101C70008003002008B5024800F0B0FB08BD00BF9B
:101C8000F803002082B0074BD3F8F42042F00202A0
:101C9000C3F8F420D3F8F43003F002030193019B5E
:101CA00002B0704700440258F0B58DB0002307938E
:101CB000089309930A930B9302685A4B9A4201D0F6
:101CC0000DB0F0BD0446584BD3F8DC2042F00102C1
:101CD000C3F8DC20D3F8DC2002F001020192019A63
:101CE000D3F8E02042F01002C3F8E020D3F8E0205F
:101CF00002F010020292029AD3F8E02042F00102B0
:101D0000C3F8E020D3F8E02002F001020392039A26
:101D1000D3F8E02042F00402C3F8E020D3F8E0203A
:101D200002F004020492049AD3F8E02042F0080280
:101D3000C3F8E020D3F8E02002F008020592059AEB
:101D4000D3F8E02042F04002C3F8E020D3F8E030BE
:101D500003F040030693069B70230793022708971E
:101D60000D260B9607A9314802F036FA5023079347
:101D70000897002509950A950B9607A92C4802F0AB
:101D80002BFA4FF470730793089709950A950B96F1
:101D900007A9284802F020FA082307930897099515
:101DA0000A950B9607A9244802F016FA4FF400731F
:101DB0000793089709950A950B9607A91F4802F003
:101DC0000BFA1F481F4B03604B2343608560C560BF
:101DD0004FF4806303614FF4805343614FF48043B9
:101DE0008361C5614FF440330362042343620323DC
:101DF00083624FF40003C3624FF40013036302F0E5
:101E000017FD58B90E4BA3649C63002211464E2067
:101E100000F04CF94E2000F059F951E7FFF7DEFCD5
:101E2000F0E700BF000002480044025800100258CA
:101E30000000025800080258000C0258001802580E
:101E4000800300202804024030B5BBB004460021C6
:101E500035913691379138913991C02204A8FEF717
:101E60008BFA23683E4A934204D03E4A934244D0C0
:101E70003BB030BD08220023CDE9042304A801F0C3
:101E800043FA002836D1384DD5F8E03043F002034C
:101E9000C5F8E030D5F8E03003F002030093009B72
:101EA000C0233593122336930024379438940423A7
:101EB000399335A92D4802F08FF9D5F8E83043F46D
:101EC0000013C5F8E830D5F8E83003F400130193A7
:101ED000019B224621461F2000F0E8F81F2000F059
:101EE000F5F822462146202000F0E0F8202000F0FE
:101EF000EDF8BDE7FFF772FCC5E708220023CDE946
:101F0000042304A801F000FA38BB174CD4F8E030E1
:101F100043F00203C4F8E030D4F8E03003F00203E9
:101F20000293029B4FF440633593122336930023B0
:101F3000379338930423399335A90C4802F04CF9B0
:101F4000D4F8E83043F48003C4F8E830D4F8E8303B
:101F500003F480030393039B8AE7FFF73FFCD4E776
:101F60000054004000580040004402580004025849
:101F700010B5B8B0044600213391349135913691B3
:101F80003791C02202A8FEF7F7F922681B4B9A424C
:101F900001D038B010BD02220023CDE9022302A8EF
:101FA00001F0B2F930BB164BD3F8E82042F400320E
:101FB000C3F8E820D3F8E82002F400320092009A37
:101FC000D3F8E02042F00102C3F8E020D3F8E0307B
:101FD00003F001030193019B0C23339302233493F9
:101FE0000023359336930723379333A9054802F02E
:101FF000F3F8CEE7FFF7F2FBD5E700BF004400405F
:102000000044025800000258002807DB00F01F02BD
:10201000400901239340024A42F82030704700BF34
:1020200000E100E0002804DB0901C9B2044B1954A7
:10203000704700F00F000901C9B2024B19547047F4
:1020400000E400E014ED00E000B500F00700C0F18E
:10205000070CBCF1040F28BF4FF0040C031D062B26
:102060000FD9C31E4FF0FF3E0EFA0CF021EA00011B
:1020700099400EFA03FE22EA0E0241EA02005DF8E0
:1020800004FB0023EEE700000649CB6823F4E0637D
:102090001B041B0C000200F4E0600343024A1A43D5
:1020A000CA60704700ED00E00000FA0510B5044674
:1020B000054BD868C0F30220FFF7C6FF0146204653
:1020C000FFF7B0FF10BD00BF00ED00E008B5FFF75F
:1020D0009BFF08BD0138B0F1807F0BD24FF0E023A9
:1020E0005861054AF02182F82310002098610722E8
:1020F0001A6170470120704700ED00E0BFF35F8F69
:10210000044B5A6A22F480325A620022C3F89420A7
:10211000704700BF00ED00E040F00100054BC3F840
:1021200094005A6A42F480325A62BFF34F8FBFF371
:102130006F8F704700ED00E04378144AC2F8983082
:10214000D2F8A03023F00103C2F8A0304368C2F8EF
:102150009C30017BC37A1B0643EA0173817A43EA10
:10216000C143417B43EA8143817B43EA4143C17BD5
:1021700043EA0143417A43EA0123017A43EA4103F6
:1021800001780B43C2F8A030704700BF00ED00E0BB
:1021900010B5846BA36B43B3A06C0268136803F49F
:1021A0000023A16B11F0010F00D143B9136813F4A0
:1021B000002F0FD0A26B236C9A422BD010BDD36896
:1021C000E16B002203EBC10103F01EFDA36B013B99
:1021D000A363EFE71369E16B012203EBC10103F095
:1021E00013FDA36B013BA363E4E7A36C1B681A68B0
:1021F00012F4002F02D0626CDA60DBE71A6812F486
:10220000002FD7D1626CE16B02EB81021A61236C63
:10221000A363CFE72268D36843F00103D360236848
:102220001B6813F0020FC9D0012384F83530C5E7CD
:10223000002848D010B5044690F83530002B32D035
:10224000022384F83530A3690BB10023636222684E
:1022500011681E4B0B401360226811686368606947
:102260000343E068034320690343A0680343A06974
:102270000343206A0343606A0343A06A0343E06A9E
:102280000343206B03430B4313606368102B0DD093
:102290002268D36843F01E03D3600020E06401236A
:1022A00084F8353010BDFFF7FFFCC9E7237F627F5C
:1022B00043EA0223A27F43EA0243E17F226843EA22
:1022C00001639361E4E70120704700BF07F0E0FF7E
:1022D00030B583B0044690F83400012867D001205F
:1022E00084F83400022084F835002568286840F41A
:1022F000804028602568286820F002002860256852
:10230000286801432960A16C2A48C863A16C2A4847
:10231000C864A06C00210165A1632164E16361646C
:10232000B3F5803F07D3A16C224848640121A16323
:10233000E363626414E021682831A06C02F04AFC77
:1023400010B34023E364012084F83500002384F8AF
:10235000343021E0E36B5B08E363A36B5B00A363B2
:10236000E36BB3F5803FF5D2A36B023BA363A36B92
:102370002364E36B2168E06B009002EB8303283158
:10238000A06C03F075FA48B92268136843F00103A2
:102390001360002084F8340003B030BD4023E364B0
:1023A000012084F83500002384F83430F4E702205B
:1023B000F2E700BF91210008BD23000808B5806B3B
:1023C000836C5B6D022B06D0012380F83530C36C23
:1023D00043F04003C364FFF7B9F908BD38B50446BC
:1023E00003681D6915F0040F20D115F0020F2CD1E0
:1023F00015F0100F3AD115F0080F3ED115F0010F6E
:1024000013D023681A6812F0020F03D0DA6822F0A2
:102410001E02DA602268D36823F00103D3602368C8
:1024200001225A612046FFF7ADF938BD04225A61F6
:10243000C36C43F00203C36480F83520836C124AF6
:102440001A65806C02F012FDCFE7236802225A6100
:10245000E36C43F00103E364042384F83530A36C98
:10246000094A1A65A06C02F001FDC1E72368102239
:102470005A612046FFF78DF9BDE7236808225A61AB
:102480002046FFF785F9B9E7BD230008002800F0D2
:10249000398338B50446036813F0010F25D0944AF8
:1024A000136903F03803926A102B15D0182B0FD044
:1024B0006368B3F5803F3FD0002B53D18C4B1A6833
:1024C00022F480321A601A6822F480221A6038E0FE
:1024D00002F00302022AEBD1854B1B6813F4003F84
:1024E00003D06368002B00F00F83236813F0020F02
:1024F00000F0A1807E4A1369926A13F038035AD023
:10250000182B55D0E368002B00F0DE8078490A686C
:1025100022F0190213430B6003F046FC0546744B8E
:102520001B6813F0040F40F0AD8003F03DFC401B2E
:102530000228F4D90320EEE26D4A136843F4803395
:10254000136063682BB303F02FFC0546684B1B68D0
:1025500013F4003FC9D103F027FC401B6428F5D9D0
:102560000320D8E2B3F5A02F09D0614B1A6822F4FA
:1025700080321A601A6822F480221A60E1E75C4B0C
:102580001A6842F480221A601A6842F480321A6093
:10259000D7E703F009FC0546554B1B6813F4003FD1
:1025A000A3D003F001FC401B6428F5D90320B2E25C
:1025B00012F0030FA6D14E4B1B6813F0040F03D08B
:1025C000E368002B00F0A282494A136823F0190344
:1025D000E1680B43136003F0E7FB0546444B1B68BF
:1025E00013F0040F06D103F0DFFB401B0228F5D9DE
:1025F000032090E203F0F2FB41F20303984212D869
:102600002269402A07D03A494B6823F47C3343EAD5
:1026100002334B600FE0364A536823F47C3343F4B3
:102620000033536007E0324A536823F0FE432169C8
:1026300043EA01635360236813F0100F00F08880B1
:102640002B4A136903F03803926A082B56D0182BD3
:1026500050D0E369002B00F0B880254A136843F09E
:102660008003136003F0A0FB0546214B1B6813F4A5
:10267000807F40F0888003F097FB401B0228F4D94C
:10268000032048E203F0AAFB41F20303984212D868
:102690002269402A07D016494B6823F47C3343EA69
:1026A00002334B60C7E7124A536823F47C3343F488
:1026B00000335360BFE70E4A536823F0FE4321699D
:1026C00043EA01635360B6E7094A136823F0010344
:1026D000136003F069FB0546054B1B6813F0040FFC
:1026E000A9D003F061FB401B0228F5D9032012E2B8
:1026F0000044025802F00302012AAAD1A14B1B6830
:1027000013F4807F03D0E369802B40F0018203F053
:1027100065FB41F20303984212D8226A202A07D0AF
:1027200098494B6823F0F84343EA82634B600FE01B
:10273000944A536823F0F84343F08043536007E022
:10274000904AD36823F07C53216A43EA0163D36043
:10275000236813F0080F60D06369002B49D0894AC1
:10276000536F43F00103536703F01EFB0546854B8F
:102770005B6F13F0020F50D103F016FB401B0228D1
:10278000F5D90320C7E103F029FB41F20303984286
:1027900012D8226A202A07D07A494B6823F0F843DE
:1027A00043EA82634B60D3E7764A536823F0F843E9
:1027B00043F080435360CBE7724AD36823F07C53E5
:1027C000216A43EA0163D360C2E76E4A136823F0CB
:1027D0008003136003F0E8FA05466A4B1B6813F4A4
:1027E000807FB5D003F0E0FA401B0228F5D9032022
:1027F00091E1644A536F23F00103536703F0D4FA65
:102800000546604B5B6F13F0020F06D003F0CCFA65
:10281000401B0228F5D903207DE1236813F0200F27
:1028200029D0A3699BB1574A136843F480531360BE
:1028300003F0BAFA0546534B1B6813F4005F1AD134
:1028400003F0B2FA401B0228F5D9032063E14D4A98
:10285000136823F48053136003F0A6FA0546494B2E
:102860001B6813F4005F06D003F09EFA401B022899
:10287000F5D903204FE1236813F0040F21D1636AD7
:10288000002B00F047813F4A126902F03802182AF3
:1028900000F0EE80022B79D03A4A136823F080735F
:1028A000136003F081FA0446364B1B6813F0007F77
:1028B00000F0DC8003F078FA001B0228F4D9032032
:1028C00029E1314A136843F48073136003F06CFA12
:1028D00005462D4B1B6813F4807F06D103F064FA84
:1028E000401B6428F5D9032015E1A368012B0AD009
:1028F0000BBB244B1A6F22F001021A671A6F22F0E9
:1029000004021A6704E01F4A136F43F001031367C0
:10291000A36833B303F048FA05461A4B1B6F13F054
:10292000020FACD103F040FA401B41F288339842C9
:10293000F3D90320EFE0052B09D0124B1A6F22F0D8
:1029400001021A671A6F22F004021A67E0E70D4BC2
:102950001A6F42F004021A671A6F42F001021A67F6
:10296000D6E703F021FA0546064B1B6F13F0020F62
:1029700085D003F019FA401B41F288339842F3D90D
:102980000320C8E00044025800480258694A13680E
:1029900023F08073136003F007FA0546654B1B684C
:1029A00013F0007F06D003F0FFF9401B0228F5D991
:1029B0000320B0E05F4B996A5F4A0A40A16AE06A6F
:1029C00041EA00110A439A62226B013AC2F30802FB
:1029D000616B0139490289B20A43A16B01390904CB
:1029E00001F4FE010A43E16B0139090601F0FE41E1
:1029F0000A431A63DA6A22F00102DA625A6B6FF351
:102A0000CF02A16C42EAC1025A63DA6A22F00C02D8
:102A1000216C0A43DA62DA6A22F00202616C0A432C
:102A2000DA62DA6A42F48032DA62DA6A42F4003256
:102A3000DA62DA6A42F48022DA62DA6A42F0010289
:102A4000DA621A6842F080721A6003F0ADF9044647
:102A5000384B1B6813F0007F06D103F0A5F9001B6B
:102A60000228F5D9032056E0002054E0002052E06F
:102A7000304A916A106B012B4ED001F00303A26A19
:102A800093424BD1C1F30511E36A994248D1C0F397
:102A90000802236B013B9A4244D1C0F34622636B88
:102AA000013B9A4240D1C0F30642A36B013B9A42DC
:102AB0003CD1C0F30660E36B013B984238D11D4B1B
:102AC0005B6BC3F3CC03A26C9A4201D1002022E0DD
:102AD000184AD36A23F00103D36203F065F905466F
:102AE00003F062F9A842FBD0124A536B6FF3CF0395
:102AF000A16C43EAC1035363D36A43F00103D36279
:102B0000002008E001207047012004E0012002E0DD
:102B1000012000E0002038BD0120FCE70120FAE799
:102B20000120F8E70120F6E70120F4E70120F2E7B1
:102B30000120F0E7004402580CFCFFFF70B588B09C
:102B40000C46154610BB234ED6F8E03043F0010387
:102B5000C6F8E030D6F8E03003F001030193019BA2
:102B60004FF48073039302230493032306930023FB
:102B70000593079303A9184801F02EFB336923F04E
:102B8000FE7325431D43356108B070BD114ED6F864
:102B9000E03043F00403C6F8E030D6F8E03003F04C
:102BA00004030293029B4FF40073039302230493E4
:102BB0000323069300230593079303A9074801F015
:102BC0000BFB336923F07E4344EAC5141C43346194
:102BD000DAE700BF0044025800000258000802581B
:102BE000754B1B6903F03803102B00F0DE80182BA7
:102BF0000FD0002B40F0DB806F4B1B6813F0200FD1
:102C000000F0D7806C4B1B68C3F3C1036B48D840FE
:102C1000704710B4684B9A6A02F003029C6AC4F3CE
:102C20000510D96A01F001015B6BC3F3CC0301FB12
:102C300003F307EE903AF8EE677A14F47C7F77D0CE
:102C4000012A4AD0022A76D0002A40F091805A4BBD
:102C50001B6813F0200F23D057490A68C2F3C10242
:102C6000564BD34007EE103AF8EE476A07EE100ACB
:102C7000B8EE476A86EE867A0B6BC3F3080306EE5E
:102C8000903AF8EE666A9FED4E6A67EE867A76EEC7
:102C9000A77AF7EE006A77EEA67A27EE277A38E071
:102CA00007EE100AF8EE476A9FED466A86EE267A2E
:102CB000414B1B6BC3F3080306EE903AF8EE666ACD
:102CC0009FED3F6A67EE867A76EEA77AF7EE006AA6
:102CD00077EEA67A27EE277A1BE007EE100AF8EEC9
:102CE000476A9FED396A86EE267A334B1B6BC3F336
:102CF000080306EE903AF8EE666A9FED316A67EED9
:102D0000867A76EEA77AF7EE006A77EEA67A27EE55
:102D1000277A294B1B6BC3F34623013307EE903A06
:102D2000F8EE677AC7EE276AFCEEE67A17EE900AAD
:102D30005DF8044B704707EE100AF8EE476A9FED06
:102D4000236A86EE267A1C4B1B6BC3F3080306EE40
:102D5000903AF8EE666A9FED1A6A67EE867A76EE2A
:102D6000A77AF7EE006A77EEA67A27EE277AD0E701
:102D700007EE100AF8EE476A9FED136A86EE267A90
:102D80000D4B1B6BC3F3080306EE903AF8EE666A30
:102D90009FED0B6A67EE867A76EEA77AF7EE006A09
:102DA00077EEA67A27EE277AB3E7094870470948F5
:102DB00070470248704700BF004402580090D0039B
:102DC000000000390024744C0024744A001BB74BE7
:102DD00000366E0100093D00002800F0328170B518
:102DE0000D4604469B4B1B6803F00F038B420BD22E
:102DF000984A136823F00F030B431360136803F022
:102E00000F038B4240F01F81236813F0040F0CD096
:102E10002269914B9B6903F070039A4205D98E4950
:102E20008B6923F070031A438A61236813F0080F3B
:102E30000CD06269884BDB6903F070039A4205D9B4
:102E40008549CB6923F070031A43CA61236813F0E4
:102E5000100F0CD0A269804BDB6903F4E0639A4247
:102E600005D97D49CB6923F4E0631A43CA6123681D
:102E700013F0200F0CD0E269774B1B6A03F070034C
:102E80009A4205D974490B6A23F070031A430A6207
:102E9000236813F0020F0CD0E2686F4B9B6903F0BC
:102EA0000F039A4205D96C498B6923F00F031A432B
:102EB0008A61236813F0010F41D0674A936923F4B4
:102EC0007063A1680B4393616368022B0AD0032BE4
:102ED00027D0012B2CD0604A126812F0040F06D1C3
:102EE0000120ADE0126812F4003F00F0AE805A49B4
:102EF0000A6922F0070213430B6102F055FF0646F0
:102F0000554B1B6903F038036268B3EBC20F16D050
:102F100002F04AFF801B41F288339842F0D9032027
:102F20008EE04D4A126812F0007FE0D1012087E068
:102F3000494A126812F4807FD9D1012080E02368C9
:102F400013F0020F0CD0E268434B9B6903F00F03B0
:102F50009A4205D240498B6923F00F031A438A61D4
:102F60003C4B1B6803F00F03AB420AD9394A136884
:102F700023F00F032B431360136803F00F03AB42DE
:102F800065D1236813F0040F0CD02269324B9B6982
:102F900003F070039A4205D22F498B6923F0700326
:102FA0001A438A61236813F0080F0CD062692A4B18
:102FB000DB6903F070039A4205D22749CB6923F0FD
:102FC00070031A43CA61236813F0100F0CD0A26972
:102FD000214BDB6903F4E0639A4205D21E49CB69B9
:102FE00023F4E0631A43CA61236813F0200F0CD066
:102FF000E269194B1B6A03F070039A4205D2164925
:103000000B6A23F070031A430A62FFF7E9FD1249C5
:103010008B69C3F30323114AD35C03F01F03D84029
:103020008B6903F00F03D35C03F01F0320FA03F353
:103030000B4A13600B4B18600B4B186802F052FEE2
:1030400070BD012070470120FAE70120F8E7012058
:10305000F6E700BF0020005200440258988500089F
:10306000580000205C0000205400002008B5FFF745
:10307000B7FD0B4A9369C3F303230A49CB5C03F002
:103080001F0320FA03F3926902F00F02885C00F03C
:103090001F0023FA00F0044A1060044A136008BDC0
:1030A0000044025898850008580000205C00002069
:1030B00008B5FFF7DBFF054BDB69C3F30213044AD6
:1030C000D35C03F01F03D84008BD00BF0044025882
:1030D0009885000808B5FFF7C9FF054BDB69C3F306
:1030E0000223044AD35C03F01F03D84008BD00BF8D
:1030F0000044025898850008404B9B6A03F0030384
:10310000032B79D070B505460E463C4A136823F070
:103110008063136002F048FE0446384B1B6813F0CE
:10312000006F06D002F040FE031B022BF5D90320EE
:1031300070BD324B9A6A22F47C32296842EA01322D
:103140009A626A68013AC2F30802A9680139490221
:1031500089B20A43E9680139090401F4FE010A430E
:1031600029690139090601F0FE410A439A63DA6AC6
:1031700022F0C00269690A43DA62DA6A22F02002A8
:10318000A9690A43DA62DA6A22F01002DA62DA6BBB
:103190006FF3CF02E96942EAC102DA63DA6A42F008
:1031A0001002DA62C6B91A46DB6A43F40023D3621E
:1031B000124A136843F08063136002F0F5FD044681
:1031C0000E4B1B6813F0006F14D102F0EDFD001BD5
:1031D0000228F5D90320ABE7012E05D0074AD36AB0
:1031E00043F40013D362E3E7044AD36A43F4801341
:1031F000D362DDE700209BE70120704700440258BE
:10320000404B9B6A03F00303032B79D070B505464E
:103210000E463C4A136823F08053136002F0C4FD4D
:103220000446384B1B6813F0005F06D002F0BCFD6B
:10323000031B022BF5D9032070BD324B9A6A22F092
:103240007C72296842EA01529A626A68013AC2F3C2
:103250000802A9680139490289B20A43E9680139BB
:10326000090401F4FE010A4329690139090601F044
:10327000FE410A431A64DA6A22F4406269690A4329
:10328000DA62DA6A22F40072A9690A43DA62DA6A57
:1032900022F48072DA625A6C6FF3CF02E96942EA73
:1032A000C1025A64DA6A42F48072DA62C6B91A4616
:1032B000DB6A43F48003D362124A136843F08053FD
:1032C000136002F071FD04460E4B1B6813F0005FA3
:1032D00014D102F069FD001B0228F5D90320ABE7E9
:1032E000012E05D0074AD36A43F08073D362E3E727
:1032F000044AD36A43F40003D362DDE700209BE76E
:103300000120704700440258F8B50446036813F0E2
:10331000006F30D0836EB3F5001F26D00ED8ABB14E
:10332000B3F5801F07D102210830FFF7E5FE0546FF
:1033300095B12E4621E0012635461EE0B3F5401F2B
:1033400001D1002508E00126354616E0984AD36AE7
:1033500043F40033D3620025954A136D23F44013E0
:10336000A16E0B431365002607E002212830FFF70A
:1033700047FF0546DCE700263546236813F4807FC7
:1033800014D0A36D042B31D8DFE803F00322290801
:103390000800874AD36A43F40033D3624DBB844AA2
:1033A000136D23F00703A16D0B431365236813F41A
:1033B000007F38D0E36D802B4AD01FD833B3402B29
:1033C00019D1002104F10800FFF796FE054622E01E
:1033D000002104F10800FFF78FFE0546DEE700211B
:1033E00004F12800FFF70CFF0546D7E70126354614
:1033F000DCE72E46DAE70126354614E0C02B0AD07A
:10340000B3F5807F07D0012635460CE0684AD36AC1
:1034100043F40033D36215BB654A136D23F4E073A4
:10342000E16D0B431365236813F4806F3CD0D4F82F
:10343000A830B3F5800F2FD016D8F3B1B3F5001F25
:103440000FD1002104F10800FFF756FE054619E0F0
:10345000002104F12800FFF7D3FE0546DBE72E46E6
:10346000E1E7012635461FE0B3F5C00F0AD0B3F5FA
:10347000000F07D00126354616E04D4AD36A43F4C3
:103480000033D3627DB94A4A936D23F46003D4F8C4
:10349000A8100B43936507E0002104F12800FFF713
:1034A000AFFE0546EEE72E46236813F4006F2BD0DF
:1034B000D4F8AC30B3F1007F53D00DD8ABB1B3F139
:1034C000807F06D1002104F10800FFF715FE0546B4
:1034D00010E00126354617E0B3F1407F0AD0B3F182
:1034E000806F07D0012635460EE0314AD36A43F497
:1034F0000033D362002D3BD12D4A936D23F0E0635E
:10350000D4F8AC100B439365236813F0007F13D0FD
:10351000E36C202B36D030D833B1102B2AD1244A7B
:10352000D36A43F40033D3629DBB214AD36C23F0AA
:103530003003E16C0B43D364236813F4805F47D0FE
:10354000236EB3F5005F00F08D8027D893B3B3F5F9
:10355000805F20D1002104F10800FFF7CDFD054672
:103560002DE0002104F12800FFF74AFE0546C1E7DF
:103570002E46C9E701263546DEE7302BD4D001269A
:103580003546D9E7022104F10800FFF7B5FD0546ED
:10359000CAE72E46D0E70126354619E0B3F5405F6D
:1035A0000DD0B3F5804F0AD00126354610E000BF9C
:1035B00000440258774AD36A43F40033D362002DA3
:1035C00057D1744A136D23F4E043216E0B43136506
:1035D000236813F4005F17D0636EB3F5003F59D032
:1035E0004CD843B1B3F5803F45D1012104F1080027
:1035F000FFF782FD0546002D53D1664A136D23F473
:10360000E023616E0B431365236813F4804F19D0D8
:10361000D4F8B030B3F1005F54D047D843B1B3F120
:10362000805F40D1012104F10800FFF765FD0546E8
:10363000002D4ED1574A936D23F0E043D4F8B010DB
:103640000B439365236813F4004F51D0236FB3F1FC
:10365000805F40D0B3F1005F55D0002B40D00126F1
:10366000354645E0002104F12800FFF7C9FD054675
:10367000A5E72E46ACE701263546C5E7B3F5802F12
:10368000B9D0B3F5A02FB6D0B3F5403FB3D00126E3
:103690003546B9E7012104F12800FFF7B1FD0546E1
:1036A000A9E72E46B0E701263546CBE7B3F1804FB8
:1036B000BED0B3F1A04FBBD0B3F1405FB8D001266C
:1036C0003546BFE7012104F12800FFF799FD0546C3
:1036D000AEE72E46B6E72F4AD36A43F40033D362EF
:1036E000C5B92C4A136D23F04053216F0B4313656A
:1036F000236813F0807F1CD0A36C032B44D8DFE831
:1037000003F0100B3C10012104F10800FFF7F4FC5A
:103710000546E5E72E46EBE71E4AD36A43F400333D
:10372000D362A5BB1B4AD36C23F00303A16C0B43EC
:10373000D364236813F4800F2ED1236813F0010F94
:1037400000F0A680E36F282B00F2A080DFE803F0F2
:103750008E9E9E9E9E9E9E9E889E9E9E9E9E9E9EAF
:10376000979E9E9E9E9E9E9E8E9E9E9E9E9E9E9E90
:103770008E9E9E9E9E9E9E9E8E00022104F10800BB
:10378000FFF7BAFC0546CCE701263546D1E72E46C1
:10379000CFE700BF00440258584A136843F48073CF
:1037A000136002F001FB0746544B1B6813F4807F43
:1037B00005D102F0F9FAC01B6428F5D90325002DC4
:1037C0004AD14F4B1B6FD4F8B420534013F4407FC1
:1037D0000CD04B4B1A6F22F44072196F41F48031B8
:1037E0001967196F21F4803119671A67D4F8B4305A
:1037F000B3F5807F15D08DBBD4F8B43003F440729C
:10380000B2F5407F1ED03E4A136923F47C53136106
:103810003B490B6FD4F8B420C2F30B0213430B6780
:103820008BE702F0C1FA0746354B1B6F13F0020F0E
:10383000E1D102F0B9FAC01B41F288339842F3D9C2
:103840000325D8E72E48026922F47C522D4901EA6B
:10385000131313430361DBE72E466EE72E466CE736
:10386000012104F10800FFF747FC0546E5B9244AA9
:10387000536D23F03803E16F0B43536508E00121DA
:1038800004F12800FFF7BCFC0546EFE701263546AA
:10389000236813F0020F17D0A36F052B29D8DFE898
:1038A00003F00B05210B0B0B2E46F1E7012104F170
:1038B0000800FFF721FC0546F5B9114A536D23F0C6
:1038C0000703A16F0B435365236813F0040F2CD03B
:1038D000D4F89430052B00F2DC80DFE803F01B15F0
:1038E000D31B1B1B012104F12800FFF789FC0546AF
:1038F000E2E701263546E7E72E46E5E700480258AD
:1039000000440258CFFFFF00012104F10800FFF737
:10391000F3FB0546002D40F0BF80B34A936D23F0C2
:103920000703D4F894100B439365236813F0200F1A
:103930001DD0D4F89030B3F1005F00F0C18000F2E8
:10394000B0804BB1B3F1805F40F0A880002104F15A
:103950000800FFF7D1FB0546002D40F0B880A24AD1
:10396000536D23F0E043D4F890100B435365236864
:1039700013F0400F1DD0D4F89C30B3F5006F00F069
:10398000BA8000F2A9804BB1B3F5806F40F0A180FE
:10399000002104F10800FFF7AFFB0546002D40F0C1
:1039A000B180914A936D23F4E053D4F89C100B43FB
:1039B0009365236813F0800F1DD0D4F8A030B3F5C1
:1039C000804F00F0B38000F2A2804BB1B3F5005FEE
:1039D00040F09A80002104F10800FFF78DFB0546B6
:1039E000002D40F0AA80804A936D23F46043D4F800
:1039F000A0100B439365236813F0080F0DD0D4F883
:103A00008430B3F5805F00F09A80774A536D23F4D9
:103A10004053D4F884100B435365236813F0100F00
:103A20000DD0D4F89830B3F5807F00F092806E4AC4
:103A3000936D23F44073D4F898100B439365236877
:103A400013F4002F00F09A80D4F8A430B3F5803F2F
:103A500000F08980B3F5003F08D0002B40F08A8049
:103A6000002104F10800FFF747FB0546002D40F058
:103A700084805D4A936D23F44033D4F8A4100B4343
:103A800093657BE0012104F12800FFF7B9FB0546AF
:103A900040E70126354648E72E4646E701263546EB
:103AA00065E7B3F1804F3FF457AFB3F1A04F3FF458
:103AB00053AFB3F1405F3FF44FAF0126354656E7B1
:103AC000022104F12800FFF79BFB054644E72E4640
:103AD0004DE7012635466CE7B3F5805F3FF45EAFF6
:103AE000B3F5A05F3FF45AAFB3F5406F3FF456AF64
:103AF000012635465DE7022104F12800FFF780FB2F
:103B000005464BE72E4654E70126354673E7B3F5E5
:103B1000004F3FF465AFB3F5204F3FF461AFB3F50D
:103B2000C04F3FF45DAF0126354664E7022104F142
:103B30002800FFF765FB054652E72E465BE70221AA
:103B400004F12800FFF75CFB00283FF45EAF01267C
:103B50005BE7022104F12800FFF752FB00283FF445
:103B600066AF012663E7022104F12800FFF748FB56
:103B700005467BE70126354600E02E46236813F410
:103B8000802F18D0D4F88830B3F5001F1FD0B3F5BC
:103B9000401F07D0B3F5801F20D1134AD36A43F4E6
:103BA0000033D362EDB9104A536D23F44013D4F8B7
:103BB00088100B435365236813F4803F2CD0236D8A
:103BC000A3B1B3F5803F1FD00126354624E0012183
:103BD00004F12800FFF714FB0546E3E7012635460C
:103BE000E9E72E46E7E700BF00440258704AD36A6F
:103BF00043F40033D36275B96D4AD36C23F4803338
:103C0000216D0B43D36407E0022104F10800FFF7A4
:103C100073FA0546EFE72E46236813F0005F11D1D3
:103C2000236813F4003F28D0D4F88030B3F5807FA8
:103C300014D010D9B3F5007F15D0B3F5407F12D062
:103C400001261AE0022104F12800FFF7D9FA002822
:103C5000E6D00126E4E733B101260EE0544AD36AE8
:103C600043F40033D362002D69D1514A536D23F4DC
:103C70004073D4F880100B435365236813F4801FFE
:103C800006D04B4A136D23F00043616F0B4313655D
:103C9000236813F0805F07D0454A136923F48043FB
:103CA000D4F8B8100B431361236813F4001F06D037
:103CB0003F4A136D23F08073E16E0B431365236855
:103CC00013F0804F09D03A4B1A6922F400421A616E
:103CD0001A69D4F8BC100A431A612368002B06DA6B
:103CE000334AD36C23F04053616D0B43D364236894
:103CF00013F4000F07D02E4A536D23F44003D4F879
:103D00008C100B435365636813F0010F19D163687E
:103D100013F0020F1ED1636813F0040F23D1636800
:103D200013F0080F28D1636813F0100F2DD16368CA
:103D300013F0200F32D106B101263046F8BD2E46D1
:103D40009BE7002104F10800FFF7D6F90028DED038
:103D50000646DCE7012104F10800FFF7CDF9002851
:103D6000D9D00646D7E7022104F10800FFF7C4F9CD
:103D70000028D4D00646D2E7002104F12800FFF73E
:103D80003FFA0028CFD00646CDE7012104F12800F4
:103D9000FFF736FA0028CAD00646C8E7022104F128
:103DA0002800FFF72DFA0028C5D00126C5E700BF7F
:103DB0000044025808B5FFF759F9054B1B6AC3F3D5
:103DC0000213044AD35C03F01F03D84008BD00BFB0
:103DD000004402589885000810B4794B9A6A9C6A8E
:103DE000C4F3053CD96AC1F30011DB6BC3F3CC0308
:103DF00001FB03F314F47C3F00F0DD8002F00302CA
:103E000007EE903AF8EE677A012A4BD0022A00F0CA
:103E10009880002A40F0B280694B1B6813F0200F95
:103E200023D067490A68C2F3C102664BD34007EE4C
:103E3000103AF8EE476A07EE10CAB8EE476A86EE07
:103E4000867A8B6BC3F3080306EE903AF8EE666A47
:103E50009FED5D6A67EE867A76EEA77AF7EE006AE6
:103E600077EEA67A27EE277A38E007EE10CAF8EE4A
:103E7000476A9FED566A86EE267A514B9B6BC3F3D9
:103E8000080306EE903AF8EE666A9FED4F6A67EE19
:103E9000867A76EEA77AF7EE006A77EEA67A27EEB4
:103EA000277A1BE007EE10CAF8EE476A9FED486AD2
:103EB00086EE267A424B9B6BC3F3080306EE903ADC
:103EC000F8EE666A9FED406A67EE867A76EEA77A2C
:103ED000F7EE006A77EEA67A27EE277A384A936BD8
:103EE000C3F3462307EE903AF8EE677AF7EE006ADE
:103EF00077EEA67A87EE276ABCEEC66A80ED006A86
:103F0000936BC3F3064307EE903AF8EE677A77EEC9
:103F1000A67A87EE276ABCEEC66A80ED016A936BCB
:103F2000C3F3066307EE903AF8EE677A77EEA67A67
:103F3000C7EE276AFCEEE66AC0ED026A5DF8044B44
:103F4000704707EE10CAF8EE476A9FED226A86EEC8
:103F5000267A1B4B9B6BC3F3080306EE903AF8EEF0
:103F6000666A9FED196A67EE867A76EEA77AF7EEB3
:103F7000006A77EEA67A27EE277AAFE707EE10CA37
:103F8000F8EE476A9FED126A86EE267A0C4B9B6B21
:103F9000C3F3080306EE903AF8EE666A9FED0A6AEC
:103FA00067EE867A76EEA77AF7EE006A77EEA67A63
:103FB00027EE277A92E70023036043608360BDE722
:103FC000004402580090D003000000390024744CD3
:103FD0000024744A001BB74B10B4794B9A6A9C6A50
:103FE000C4F3055CD96AC1F300215B6CC3F3CC0355
:103FF00001FB03F314F07C7F00F0DD8002F003028C
:1040000007EE903AF8EE677A012A4BD0022A00F0C8
:104010009880002A40F0B280694B1B6813F0200F93
:1040200023D067490A68C2F3C102664BD34007EE4A
:10403000103AF8EE476A07EE10CAB8EE476A86EE05
:10404000867A0B6CC3F3080306EE903AF8EE666AC4
:104050009FED5D6A67EE867A76EEA77AF7EE006AE4
:1040600077EEA67A27EE277A38E007EE10CAF8EE48
:10407000476A9FED566A86EE267A514B1B6CC3F356
:10408000080306EE903AF8EE666A9FED4F6A67EE17
:10409000867A76EEA77AF7EE006A77EEA67A27EEB2
:1040A000277A1BE007EE10CAF8EE476A9FED486AD0
:1040B00086EE267A424B1B6CC3F3080306EE903A59
:1040C000F8EE666A9FED406A67EE867A76EEA77A2A
:1040D000F7EE006A77EEA67A27EE277A384A136C55
:1040E000C3F3462307EE903AF8EE677AF7EE006ADC
:1040F00077EEA67A87EE276ABCEEC66A80ED006A84
:10410000136CC3F3064307EE903AF8EE677A77EE46
:10411000A67A87EE276ABCEEC66A80ED016A136C48
:10412000C3F3066307EE903AF8EE677A77EEA67A65
:10413000C7EE276AFCEEE66AC0ED026A5DF8044B42
:10414000704707EE10CAF8EE476A9FED226A86EEC6
:10415000267A1B4B1B6CC3F3080306EE903AF8EE6D
:10416000666A9FED196A67EE867A76EEA77AF7EEB1
:10417000006A77EEA67A27EE277AAFE707EE10CA35
:10418000F8EE476A9FED126A86EE267A0C4B1B6C9E
:10419000C3F3080306EE903AF8EE666A9FED0A6AEA
:1041A00067EE867A76EEA77AF7EE006A77EEA67A61
:1041B00027EE277A92E70023036043608360BDE720
:1041C000004402580090D003000000390024744CD1
:1041D0000024744A001BB74BF0B583B000236FE096
:1041E00085685E000324B44025EA0405CC68B44029
:1041F0002C438460456825EA0C054C68C4F3001420
:104200009C402C4344606EE08C68012C70D17EE0B1
:10421000DD08083550F8254003F0070C4FEA8C0CF8
:104220004FF00F0E0EFA0CFE24EA0E0E0C6904FA83
:104230000CF444EA0E0440F825406EE0092400E046
:10424000002404FA0EF42C430CF1020C6A4D45F8DC
:104250002C404FF0B0442568D44325EA02064F684D
:1042600017F4801F01D042EA05064FF0B0452E60DA
:104270006D6804EA05064F6817F4001F01D042EA92
:1042800005064FF0B0456E60D5F8845004EA050687
:104290004F6817F4003F01D042EA05064FF0B045E1
:1042A000C5F88460D5F880502C404E6816F4803FE5
:1042B00001D042EA05044FF0B042C2F88040013319
:1042C0000A6832FA03F400F095804FF0010C0CFA02
:1042D00003FC1CEA0202F2D04C6804F00304013C27
:1042E000012C7FF67DAF4C6804F00304032C8BD0C7
:1042F000C4684FEA430E4FF0030C0CFA0EFC24EA9C
:104300000C0C8C6804FA0EF444EA0C04C4604C688B
:1043100004F00304022C3FF47BAF04684FEA430E21
:104320004FF0030C0CFA0EFC24EA0C0C4C6804F061
:10433000030404FA0EF444EA0C0404604C6814F418
:10434000403FBCD02D4CD4F8F45045F00205C4F8E1
:10435000F450D4F8F44004F002040194019C4FEAB4
:10436000930C0CF10205244C54F8255003F0030E75
:104370004FEA8E0E0F2404FA0EF425EA0405204CB1
:10438000A0423FF45DAF04F58064A04222D004F562
:104390008064A04220D004F58064A0421ED004F5C1
:1043A0008064A0421CD004F58064A0421AD004F5B9
:1043B0008064A04218D004F58064A04216D004F5B1
:1043C0008064A04214D004F58064A0423FF436AF6C
:1043D0000A2436E7012434E7022432E7032430E7D5
:1043E00004242EE705242CE706242AE7072428E7DF
:1043F000082426E703B0F0BD00040058004402582A
:10440000000002580AB18161704709048161704758
:10441000F0B4876D0468664E664DAC4218BFB44276
:1044200042D01835AC423FD01835AC423CD018359C
:10443000AC4239D01835AC4236D01835AC4233D006
:104440001835AC4230D005F55675AC422CD0183535
:10445000AC4229D01835AC4226D01835AC4223D016
:104460001835AC4220D01835AC421DD01835AC42BE
:104470001AD01835AC4217D04F4DAC4214D0143579
:10448000AC4211D01435AC420ED01435AC420BD036
:104490001435AC4208D01435AC4205D01435AC42CA
:1044A00002D01435AC4207D1446E856E6560C46E8F
:1044B00014B1046F456F656004683D4E3D4DAC42DC
:1044C00018BFB44252D01835AC424FD01835AC4268
:1044D0004CD01835AC4249D01835AC4246D01835CE
:1044E000AC4243D01835AC4240D005F55675AC42CD
:1044F0003CD01835AC4239D01835AC4236D01835DE
:10450000AC4233D01835AC4230D01835AC422DD047
:104510001835AC422AD01835AC4227D0264E274D4C
:10452000AC4218BFB44211D0254DAC420ED0143568
:10453000AC420BD01435AC4208D01435AC4205D097
:104540001435AC4202D01435AC4224D1C46D04F011
:104550001F050124AC407C60046863608368402BC5
:1045600020D0036899600368DA6014E0C46D04F039
:104570001F0C3F2404FA0CF4BC6005682C6824F47A
:1045800080242C60046863608368402B05D0036836
:1045900099600368DA60F0BC704703689A6003684A
:1045A000D960F8E703689A600368D960F3E700BF51
:1045B0001000024028000240085402581C540258BF
:1045C0003054025803682749274A934218BF8B4248
:1045D0002FD0183293422CD01832934229D018325F
:1045E000934226D01832934223D01832934220D0DF
:1045F000183293421DD002F55672934219D01832E8
:10460000934216D01832934213D01832934210D0EE
:10461000183293420DD0183293420AD01832934286
:1046200007D01832934204D023F0FF038365806DD6
:10463000704710B4D9B210390C4AA2FB0142C2F340
:1046400002120B4CA25CC2655F2907D96FF3090304
:1046500004338365806D5DF8044B70476FF3090385
:104660008365F7E71000024028000240ABAAAAAA1F
:104670006885000883699BB9836A012B0AD0022BE5
:1046800002D00BB100207047C36A13F0807F2AD19B
:1046900000207047C36AB3F1C07F26D00020704766
:1046A000B3F5005F0AD0836A022B26D9032B26D1EB
:1046B000C36A13F0807F24D100207047836A032BE4
:1046C00003D8DFE803F01404140A00207047C36A1B
:1046D00013F0807F0DD100207047C36AB3F1C07F13
:1046E00009D0002070470120704701207047012049
:1046F000704701207047012070470120704700205B
:10470000704701207047000003682149214A934205
:1047100018BF8B4227D01432934224D014329342D4
:1047200021D0143293421ED0143293421BD0143243
:10473000934218D01432934215D0DAB2103A164987
:10474000A1FB0212120915491944A8291ED9144BBC
:1047500013449B000366134B436602F01F020123C0
:10476000934083667047DBB2083B0F4AA2FB0323EA
:104770000E4A02EB1312920002660D4A4266C3F320
:104780000413012202FA03F3836670470832DEE75E
:10479000085402581C540258ABAAAAAAF0FBFDBF49
:1047A0000082001080080240CDCCCCCC00960016D0
:1047B0008058025801794A1E072A2BD830B4036862
:1047C000154D164CA34218BFAB4218D01434A34267
:1047D00015D01434A34212D01434A3420FD0143491
:1047E000A3420CD01434A34209D01434A34206D0FF
:1047F0000B4B0B449B00C3660A4B036705E00A4B57
:104800000B449B00C366094B036701239340436736
:1048100030BC7047704700BF085402581C540258FF
:104820003F820010400902403F960016405902584E
:1048300070B5044601F0B8FA002C00F0B9810546C5
:1048400023685349534A934218BF8B420CBF01213E
:10485000002150D0183293424DD0183293424AD0A2
:104860001832934247D01832934244D018329342C0
:1048700041D0183293423ED002F5567293423AD05C
:104880001832934237D01832934234D018329342C0
:1048900031D0183293422ED0183293422BD0183296
:1048A000934228D01832934225D03B493B4A934249
:1048B00018BF8B4200F03481394A934200F03081B6
:1048C0001432934200F02C811432934200F028817C
:1048D0001432934200F024811432934200F020817C
:1048E0001432934200F01C8140236365032384F853
:1048F000353001204AE0022284F83520002284F875
:10490000342079BB274A93422CD01832934229D0C5
:104910001832934226D01832934223D01832934251
:1049200020D0183293421DD002F55672934219D00E
:104930001832934216D01832934213D01832934251
:1049400010D0183293420DD0183293420AD0183248
:10495000934207D01832934204D01A6822F0010221
:104960001A6003E01A6822F001021A6023681A68CC
:1049700012F0010F18D001F017FA431B052BF5D9DF
:1049800020236365032384F83530012070BD00BF08
:104990001000024028000240085402581C540258DB
:1049A00030540258400002401A6882491140A268FF
:1049B000E06802432069024360690243A069024340
:1049C000E0690243206A02430A43616A042900F055
:1049D0009880794909686FF30F01B1F1005F10D336
:1049E00061682E2940F2928052290AD83F2908D3C3
:1049F0003F39724820FA01F111F0010F01D042F461
:104A000080121A602668756925F00705636A1D43E0
:104A1000042B08D1A36A1D43E36A23B12046FFF7A4
:104A200029FE002876D175612046FFF7CBFDE36DA6
:104A300003F01F023F239340836023686049614A6B
:104A4000934218BF8B4242D0183293423FD0183263
:104A500093423CD01832934239D01832934236D028
:104A60001832934233D01832934230D002F5567246
:104A700093422CD01832934229D01832934226D038
:104A80001832934223D01832934220D018329342E6
:104A90001DD0183293421AD01832934217D04A4A86
:104AA000934214D01432934211D0143293420ED058
:104AB000143293420BD01432934208D014329342F2
:104AC00005D01432934202D01432934213D12046BF
:104AD000FFF71AFEA368802B5DD0236E22791A603F
:104AE000636EA26E5A606368013B072B56D90023A0
:104AF000E3662367636700206065012384F835302F
:104B000044E7E16A206B01430A4362E72929FFF485
:104B100078AF74E740236365012084F8350035E7FA
:104B2000022284F83520002284F8342019686FF3BB
:104B30001011A268402A2CD0802A27D00022E068D9
:104B400042EAD002206942EAD002606942EAD00219
:104B5000A06942EAD002E06942EAD002206A42EA51
:104B600010120A431A602268184B1344184AA2FB19
:104B700003231B099B00E3652046FFF723FDE26D3D
:104B800002F01F0101228A40426056E74FF4804242
:104B9000D5E71022D3E7002363609EE72046FFF7A6
:104BA00009FEE36E00221A60236F626F5A60A2E76B
:104BB0000120EBE63F8010FE0010005C0F030F00A9
:104BC000100002402800024008540258F8ABFDA72C
:104BD000CDCCCCCC002800F03E8170B5044690F8D6
:104BE0003400012800F03981012084F8340094F861
:104BF0003500C0B2012807D04FF40063636500237D
:104C000084F83430012070BD022084F83500002083
:104C100060652068924E934DA84218BFB0422FD0D5
:104C20001835A8422CD01835A84229D01835A842EA
:104C300026D01835A84223D01835A84220D01835E0
:104C4000A8421DD005F55675A84219D01835A842BE
:104C500016D01835A84213D01835A84210D01835F0
:104C6000A8420DD01835A8420AD01835A84207D05E
:104C70001835A84204D0056825F00105056003E059
:104C8000056825F0010505602046FFF7C1FB236894
:104C90007349744A934218BF8B4238D018329342FA
:104CA00035D01832934232D0183293422FD0183276
:104CB00093422CD01832934229D01832934226D0F6
:104CC00002F55672934222D0183293421FD0183206
:104CD00093421CD01832934219D01832934216D006
:104CE0001832934213D01832934210D018329342A4
:104CF0000DD01A6822F00E0242F00A021A60236CEC
:104D000093B12268136843F0040313600CE01A683F
:104D100022F01E0242F016021A60236C23B12268B0
:104D2000136843F00803136023684D494D4A9342CA
:104D300018BF8B4242D0183293423FD01832934270
:104D40003CD01832934239D01832934236D01832C0
:104D5000934233D01832934230D002F556729342C8
:104D60002CD01832934229D01832934226D01832D0
:104D7000934223D01832934220D0183293421DD050
:104D8000183293421AD01832934217D0364A9342BF
:104D900014D01432934211D0143293420ED01432F4
:104DA00093420BD01432934208D01432934205D070
:104DB0001432934202D0143293420ED1236E1A68F9
:104DC00012F4803F03D01A6842F480721A60E36ED6
:104DD0001BB11A6842F480721A6023682049214A84
:104DE000934218BF8B4230D0183293422DD01832E4
:104DF00093422AD01832934227D01832934224D0BB
:104E00001832934221D0183293421ED002F55672C6
:104E100093421AD01832934217D01832934214D0CA
:104E20001832934211D0183293420ED01832934266
:104E30000BD01832934208D01832934205D01A682A
:104E400042F001021A600020DDE61A6842F0010219
:104E50001A600020D7E6012070470220D3E600BF89
:104E6000100002402800024008540258002800F0B8
:104E7000FF8008B5024690F83530DBB2022B03D034
:104E800080234365012008BD03687B487B498B4232
:104E900018BF83420CBF0120002000F0AE80183103
:104EA0008B4200F0AA8018318B4200F0A6801831A6
:104EB0008B4200F0A28018318B4200F09E801831A6
:104EC0008B4200F09A8018318B4200F0968001F5F9
:104ED00056718B4200F0918018318B4200F08D802A
:104EE00018318B4200F0898018318B4200F08580A8
:104EF00018318B4200F0818018318B427DD01831FF
:104F00008B427AD018318B4277D0196821F0010199
:104F1000196011680B6823F00E030B601368564884
:104F200056498B4218BF834242D018318B423FD042
:104F300018318B423CD018318B4239D018318B421A
:104F400036D018318B4233D018318B4230D001F536
:104F500056718B422CD018318B4229D018318B429C
:104F600026D018318B4223D018318B4220D01831F3
:104F70008B421DD018318B421AD018318B4217D07A
:104F80003F498B4214D014318B4211D014318B42E3
:104F90000ED014318B420BD014318B4208D0143117
:104FA0008B4205D014318B4202D014318B4217D181
:104FB000116E0B6823F480730B60906DD36D03F05A
:104FC0001F0101238B404360536E916E5960D36E75
:104FD00033B1196821F480711960136F516F5960F2
:104FE000012382F83530002382F83430136D002B12
:104FF00040D010469847002045E7042182F835103C
:1050000080BB204A93422DD0183293422AD01832C6
:10501000934227D01832934224D01832934221D0A1
:10502000183293421ED002F5567293421AD01832AB
:10503000934217D01832934214D01832934211D0B1
:10504000183293420ED0183293420BD0183293424A
:1050500008D01832934205D01A6822F001021A6073
:10506000002010E71A6822F001021A6000200AE707
:1050700001207047002006E710000240280002408F
:105080000854025840000240F0B583B004460023A3
:1050900001937D4B1D687D4BA3FB0535AD0A876DE4
:1050A0003E68D7F800C0036879497A48834218BF40
:1050B0008B420CBF0120002061D0774A93425ED022
:1050C000183293425BD01832934258D01832934230
:1050D00055D01832934252D0183293424FD002F535
:1050E000567293424BD01832934248D018329342B2
:1050F00045D01832934242D0183293423FD01832F2
:1051000093423CD01832934239D01832934236D071
:105110006249634A934218BF8B4212D0614A93425C
:105120000FD0143293420CD01432934209D014326F
:10513000934206D01432934203D01432934240F08B
:1051400061821A68E16D01F01F010420884010EAB5
:105150000C0F00F0A78212F0040F00F0A382786019
:1051600012F4004F00F05A8212F4803F00F0508297
:10517000A36C002B00F046822046984742E2E26D85
:1051800002F01F0108228A40324241D070BB424ADD
:1051900093422BD01832934228D01832934225D014
:1051A0001832934222D0183293421FD018329342C1
:1051B0001CD002F55672934218D01832934215D083
:1051C0001832934212D0183293420FD018329342C1
:1051D0000CD01832934209D01832934206D01832BC
:1051E000934203D01A68C2F3C00202E01A68C2F305
:1051F00080026AB11A6822F004021A60E36D03F0BB
:105200001F0208239340BB60636D43F00103636595
:10521000E26D02F01F0226FA02F313F0010F47D0ED
:1052200023681B481B498B4218BF83423CD018316E
:105230008B4239D018318B4236D018318B4233D063
:1052400018318B4230D018318B422DD018318B421F
:105250002AD001F556718B4226D018318B4223D0CB
:1052600018318B4220D018318B421DD018318B421F
:105270001AD018318B4217D018318B4214D0183104
:105280008B4211D01B6813E05C000020B5814E1BDF
:10529000100002402800024040000240085402581A
:1052A0001C540258305402585B6913F0800F3BD1F4
:1052B000E36D03F01F03042202FA03F333423FD0ED
:1052C0002268964896498A4218BF824234D01831E3
:1052D0008A4231D018318A422ED018318A422BD0DE
:1052E00018318A4228D018318A4225D018318A4292
:1052F00022D001F556718A421ED018318A421BD045
:1053000018318A4218D018318A4215D018318A4291
:1053100012D018318A420FD018318A420CD018317D
:105320008A4209D013680BE001239340BB60636D90
:1053300043F002036365BBE7126812F0020F3DD130
:10534000E36D03F01F03102202FA03F333425FD030
:105350002268724872498A4218BF824234D018319A
:105360008A4231D018318A422ED018318A422BD04D
:1053700018318A4228D018318A4225D018318A4201
:1053800022D001F556718A421ED018318A421BD0B4
:1053900018318A4218D018318A4215D018318A4201
:1053A00012D018318A420FD018318A420CD01831ED
:1053B0008A4209D01268C2F3800208E0BB60636DC4
:1053C00043F004036365BBE71268C2F3C002FAB19D
:1053D000BB6023681A6812F4802F0DD01B6813F489
:1053E000002F04D1236C9BB12046984710E0A36C9A
:1053F00073B1204698470BE01A6812F4807F03D1FE
:105400001A6822F008021A60236C0BB120469847F4
:10541000E36D03F01F03202202FA03F3334200F08E
:10542000938022683D483E498A4218BF82422ED06E
:1054300018318A422BD018318A4228D018318A423A
:1054400025D018318A4222D018318A421FD0183113
:105450008A421CD001F556718A4218D018318A420E
:1054600015D018318A4212D018318A420FD0183123
:105470008A420CD018318A4209D018318A4206D0AB
:1054800018318A4203D01268C2F3400202E0126867
:10549000C2F30012002A57D0BB6094F83530DBB25B
:1054A000042B0ED023681A6812F4802F3AD01B68A0
:1054B00013F4002F2DD0636C002B45D02046984765
:1054C00042E02268136823F01603136022685369D0
:1054D00023F080035361236CBBB12268136823F06F
:1054E00008031360E36D03F01F023F239340BB608A
:1054F000012384F83530002384F83430236D002BE9
:1055000000F08080204698477CE0A36C002BE4D11B
:10551000E8E7E36BC3B12046984715E0100002406E
:10552000280002401A6812F4807F09D11A6822F01C
:1055300010021A60012384F83530002384F83430D7
:10554000E36B0BB120469847636D002B5AD0636D17
:1055500013F0010F52D0042384F8353023689649A4
:10556000964A934218BF8B422FD0183293422CD0C8
:105570001832934229D01832934226D018329342DF
:1055800023D01832934220D0183293421DD002F516
:105590005672934219D01832934216D01832934261
:1055A00013D01832934210D0183293420DD01832D3
:1055B00093420AD01832934207D01832934204D053
:1055C0001A6822F001021A6003E01A6822F0010250
:1055D0001A60019B01330193AB4204D823681B6816
:1055E00013F0010FF5D123681B6813F0010F0BD0E6
:1055F000032384F83530002384F83430E36C0BB196
:105600002046984703B0F0BD012384F83530F2E717
:10561000236C002BF6D020469847F3E712F0200FBA
:105620003AD123686449654A934218BF8B422FD010
:10563000183293422CD01832934229D01832934218
:1056400026D01832934223D01832934220D01832F9
:1056500093421DD002F55672934219D018329342EC
:1056600016D01832934213D01832934210D0183209
:1056700093420DD0183293420AD01832934207D089
:105680001832934204D01A6822F004021A6003E030
:105690001A6822F008021A60236C002BB2D0204650
:1056A0009847AFE70220884010EA0C0F60D012F054
:1056B000020F5DD0786012F4004F0ED012F4803FDC
:1056C00005D1636C002B9DD0204698479AE7E36B89
:1056D000002B97D02046984794E712F0200F40D136
:1056E00023683549354A934218BF8B422FD0183270
:1056F00093422CD01832934229D01832934226D0AC
:105700001832934223D01832934220D01832934259
:105710001DD002F55672934219D01832934216D01A
:105720001832934213D01832934210D01832934259
:105730000DD0183293420AD01832934207D0183253
:10574000934204D01A6822F00A021A6003E01A6831
:1057500022F014021A60012384F83530002384F803
:105760003430E36B002B3FF44DAF2046984749E7B8
:10577000082000FA01F111EA0C0F3FF443AF12F0D8
:10578000080F3FF43FAF1A6822F00E021A60E36D73
:1057900003F01F03012202FA03F37B60626584F8C1
:1057A0003520002384F83430E36C002B3FF42AAF1B
:1057B0002046984726E700BF10000240280002401C
:1057C00090F835007047000070B40468264E274DED
:1057D000AC4218BFB44233D01835AC4230D0183583
:1057E000AC422DD01835AC422AD01835AC4227D067
:1057F0001835AC4224D01835AC4221D005F5567589
:10580000AC421DD01835AC421AD01835AC4217D076
:105810001835AC4214D01835AC4211D01835AC4212
:105820000ED01835AC420BD01835AC4208D06360AE
:105830008368402B13D0036899600368DA6007E03F
:1058400063608368402B05D0036899600368DA6061
:1058500070BC704703689A600368D960F8E7036812
:105860009A600368D960F3E7100002402800024004
:1058700070B504468068802811D094F8340001285F
:1058800000F0B981012084F8340094F83500C0B2EA
:10589000012809D04FF400636365012070BD4FF407
:1058A000807363650120F9E7022084F83500002049
:1058B00060652068724E734DA84218BFB04239D05F
:1058C0001835A84236D01835A84233D01835A8422A
:1058D00030D01835A8422DD01835A8422AD0183516
:1058E000A84227D005F55675A84223D01835A842FE
:1058F00020D01835A8421DD01835A8421AD0183526
:10590000A84217D01835A84214D01835A84211D093
:105910001835A8420ED0066848F2200535430560C8
:1059200020680361A56DE36D03F01F000123834030
:105930006B600CE0056845F4802505602068036114
:10594000A56DE36D03F01F003F238340AB60049B14
:105950002046FFF739FF236849494A4A934218BF56
:105960008B4242D0183293423FD0183293423CD0FF
:105970001832934239D01832934236D018329342BB
:1059800033D01832934230D002F5567293422CD065
:105990001832934229D01832934226D018329342BB
:1059A00023D01832934220D0183293421DD018329F
:1059B00093421AD01832934217D0334A934214D0EC
:1059C0001432934211D0143293420ED014329342C7
:1059D0000BD01432934208D01432934205D01432C3
:1059E000934202D01432934207D1636EA26E5A6082
:1059F000E36E13B1236F626F5A6023682049214A16
:105A0000934218BF8B4241D0183293423ED0183295
:105A100093423BD01832934238D01832934235D05B
:105A20001832934232D0183293422FD002F5567278
:105A300093422BD01832934228D01832934225D06B
:105A40001832934222D0183293421FD01832934218
:105A50001CD01832934219D01832934216D01A68CB
:105A600022F00E0242F00A021A60236C002B00F0B2
:105A7000B7802268136843F0040313601AE000BF84
:105A80001000024028000240085402581A6822F010
:105A90001E0242F016021A602268536943F0800326
:105AA0005361236C002B00F096802268136843F04A
:105AB0000803136023685149514A934218BF8B422F
:105AC00042D0183293423FD0183293423CD0183221
:105AD000934239D01832934236D01832934233D0A1
